:100000000C94D4000C94F1000C94F1000C94F100C9
:100010000C94F1000C94F1000C94F1000C94F1009C
:100020000C94F1000C94F1000C94F1000C94F1008C
:100030000C94F1000C94F1000C94F1000C94F1007C
:100040000C94F1000C94F1000C94F1000C94F1006C
:100050000C94F10008000000BE922449123EABAAA5
:10006000AA2ABECDCCCC4C3E00000080BEABAAAAD2
:10007000AA3E00000000BF000000803F000000001A
:1000800000084178D3BB4387D1133D190E3CC3BD53
:100090004282AD2B3E68EC8276BED98FE1A93E4C00
:1000A00080EFFFBE01C4FF7F3F0000000000004062
:1000B0007A10F35A00A0724E18090010A5D4E80077
:1000C00000E87648170000E40B54020000CA9A3B8F
:1000D000000000E1F5050000809698000000404215
:1000E0000F000000A08601000000102700000000A3
:1000F000E803000000006400000000000A000000A7
:1001000000000100000000002C76D888DC674F0852
:1001100023DFC1DFAE59E1B1B796E5E3E453C63A58
:10012000E651997696E8E6C28426EB898C9B62EDCF
:10013000407C6FFCEFBC9C9F40F2BAA56FA5F49089
:10014000055A2AF75C936B6CF9676DC11BFCE0E400
:100150000D47FEF520E6B500D0ED902E0300943556
:1001600077050080841E080000204E0A000000C8A9
:100170000C333333330F986E12831141EF8D2114FA
:10018000893BE65516CFFEE6DB18D1844B381BF7CA
:100190007C1D901DA4BBE424203284725E22810069
:1001A000C9F124ECA1E53D2711241FBECFE5D4E021
:1001B000DEBFCDBF10E0A0E6B0E0ECE7FEE002C09D
:1001C00005900D92A836B107D9F710E0A8E6B0E087
:1001D00001C01D92A438B107E1F70E945F010C94A1
:1001E0003C070C9400001ABA86B1876886B980E48F
:1001F00087B9089597B18F70982B97B9369A349B29
:10020000FECF83E08A95F1F7000024B135B1932F3A
:1002100080E0820F911D089585BBC098C198C29A55
:1002200083EC99E00197F1F700C00000C29883ECDD
:1002300099E00197F1F700C00000089585BBC09ACE
:10024000C198C29A83EC99E00197F1F700C00000D1
:10025000C29883EC99E00197F1F700C0000008957F
:1002600088E30E940C018EE00E940C0180E80E944D
:100270000C0186E00E940C0181E00E940C010895AF
:100280000F931F93CF93DF93082F192FC0E0D0E077
:100290000CC00E941E012196C031D10531F480ECC2
:1002A0000E940C0186E00E940C01F80181918F01EF
:1002B000882379F7DF91CF911F910F9108950E94C4
:1002C000F3008FEF84BB87B3876087BB0E94300148
:1002D0000F2EF0EF4F2EF8E15F2EFCE96F2EF0E0CD
:1002E0007F2EF02DCCE6D0E00F2EF4E13F2EF02D46
:1002F00080E00E94FA009C01442737FD4095542F6E
:10030000C301B2010E947604CA01B901605177426B
:1003100080409040609368007093690080936A0009
:1003200090936B000E94E7020E947C036B017C01AA
:1003300023E73FE745E759E30E94BC032BEE3FEF7D
:1003400043E95AE30E9419024B015C01C701B6015F
:1003500029E537E44CEB53E30E94BC039B01AC015D
:10036000C701B6010E94BC039B01AC01C701B601E5
:100370000E94BC039B01AC01C501B4010E9419029B
:100380009B01AC0160E070E080E89FE30E947D0289
:1003900023E333E948E853E40E941802262F372F5D
:1003A000F82F462F572F682F792F409380005093B6
:1003B00081006093820070938300DE01E32D1D9223
:1003C000EA95E9F7492F822F932FAF2FB42FBC0165
:1003D000CD0143E022E08E010E94B304CE010E94D1
:1003E000400180E690E00E94400180EC0E940C01F8
:1003F00060918000709181008091820090918300D3
:1004000020E030E044E152E40E94730318166CF4DB
:1004100082E690E00E9440018FE996E8A1E08150D9
:100420009040A040E1F700C000000E94300160CF82
:100430005058BB27AA270ED01CC10DD130F012D1C5
:1004400020F031F49F3F11F41EF402C10EF4E09548
:10045000E7FBF8C0E92F1ED180F3BA1762077307D4
:100460008407950718F071F49EF536C10EF4E095F7
:100470000B2EBA2FA02D0B01B90190010C01CA015E
:10048000A0011124FF27591B99F0593F50F4503E09
:1004900068F11A16F040A22F232F342F4427585FFB
:1004A000F3CF469537952795A795F0405395C9F713
:1004B0007EF41F16BA0B620B730B840BBAF09150CB
:1004C000A1F0FF0FBB1F661F771F881FC2F70EC06A
:1004D000BA0F621F731F841F48F48795779567953D
:1004E000B795F7959E3F08F0B3CF9395880F08F026
:1004F0009927EE0F9795879508950CD0BAC0B2D082
:1005000040F0A9D030F021F45F3F19F09BC05111A9
:10051000E4C09EC0BFD098F39923C9F35523B1F32B
:10052000951B550BBB27AA2762177307840738F062
:100530009F5F5F4F220F331F441FAA1FA9F333D0C1
:100540000E2E3AF0E0E830D091505040E695001C75
:10055000CAF729D0FE2F27D0660F771F881FBB1F31
:10056000261737074807AB07B0E809F0BB0B802D0B
:10057000BF01FF2793585F4F2AF09E3F510568F057
:1005800061C0ABC05F3FECF3983EDCF38695779596
:100590006795B795F7959F5FC9F7880F911D969559
:1005A000879597F90895E1E0660F771F881FBB1FB5
:1005B000621773078407BA0720F0621B730B840B62
:1005C000BA0BEE1F88F7E0950895E89409C097FBF1
:1005D0003EF490958095709561957F4F8F4F9F4F1A
:1005E0009923A9F0F92F96E9BB279395F69587955E
:1005F00077956795B795F111F8CFFAF4BB0F11F421
:1006000060FF1BC06F5F7F4F8F4F9F4F16C08823C7
:1006100011F096E911C0772321F09EE8872F762FFD
:1006200005C0662371F096E8862F70E060E02AF03E
:100630009A95660F771F881FDAF7880F969587952A
:1006400097F9089597F99F6780E870E060E0089552
:100650009FEF80EC089500240A94161617061806DA
:100660000906089500240A941216130614060506B6
:100670000895092E0394000C11F4882352F0BB0F47
:1006800040F4BF2B11F460FF04C06F5F7F4F8F4FAA
:100690009F4F089557FD9058440F551F59F05F3FE5
:1006A00071F04795880F97FB991F61F09F3F79F094
:1006B00087950895121613061406551FF2CF469516
:1006C000F1DF08C0161617061806991FF1CF869598
:1006D0007105610508940895E894BB27662777277C
:1006E000CB0197F90895ABD008F48FEF08950EF081
:1006F000CAC0AECF6894A6CFD5DFC8F39923D1F393
:10070000C6F3DF93CF931F930F93FF92C92FDD277B
:1007100088232AF02197660F771F881FDAF720E0D9
:1007200030E040E85FEB9FE3883920F0803E30F016
:1007300021968F777EDEE4E5F0E003C07ADEE1E823
:10074000F0E0AFD08B01BE01EC01FB2E6F577109B9
:100750007595771F880B990B3ADF28E132E741E363
:100760005FE316D0AF2D9801AE01FF900F911F915E
:10077000CF91DF916FDE7DCF0BD07BCF6CDF28F088
:1007800071DF18F0952309F05DCF62CF1124A5CF5A
:1007900081DFA0F3959FD1F3950F50E0551F629F25
:1007A000F001729FBB27F00DB11D639FAA27F00DCA
:1007B000B11DAA1F649F6627B00DA11D661F829FF1
:1007C0002227B00DA11D621F739FB00DA11D621FD6
:1007D000839FA00D611D221F749F3327A00D611DF3
:1007E000231F849F600D211D822F762F6A2F1124D5
:1007F0009F5750408AF0E1F088234AF0EE0FFF1F28
:10080000BB1F661F771F881F91505040A9F79E3F5E
:10081000510570F017CF61CF5F3FECF3983EDCF3EA
:10082000869577956795B795F795E7959F5FC1F79B
:10083000FE2B880F911D9695879597F90895990F2E
:100840000008550FAA0BE0E8FEEF16161706E8079A
:10085000F907C0F012161306E407F50798F0621BBB
:10086000730B840B950B39F40A2661F0232B242B90
:10087000252B21F408950A2609F4A140A6958FEFAF
:10088000811D811D08959F3F31F0915020F487957F
:1008900077956795B795880F911D9695879597F9E8
:1008A0000895DF93CF931F930F93FF92EF92DF9200
:1008B0007B018C01689405C0DA2EEF0169DFFE012F
:1008C000E894A5912591359145915591AEF3EF01AD
:1008D000C1DDFE019701A801DA9479F7DF90EF906E
:1008E000FF900F911F91CF91DF91089597FB092EF3
:1008F00005260ED057FD04D014D00AD0001C38F4C1
:1009000050954095309521953F4F4F4F5F4F08953B
:10091000F6F790958095709561957F4F8F4F9F4F1B
:100920000895A1E21A2EAA1BBB1BFD010DC0AA1F30
:10093000BB1FEE1FFF1FA217B307E407F50720F048
:10094000A21BB30BE40BF50B661F771F881F991FC3
:100950001A9469F760957095809590959B01AC010C
:10096000BD01CF010895EF920F931F93CF93322FC4
:10097000C02F47FF02C0A4E101C0A4E0E42FFF277D
:10098000E7FDF095F7FF03C0F095E195FF4F4C2F81
:10099000512F2E2F032FEA2E0E94D5048C2F912F3A
:1009A000CF911F910F91EF900895A9E0B0E0EBED8A
:1009B000F4E00C9409076A01122FF02E2BE32017A4
:1009C00018F0B02EB39402C03CE3B32EAE014F5FDB
:1009D0005F4F27E00B2D0E942D06BC01A981B0E0DE
:1009E000CD01897090708130910531F0E1FC06C035
:1009F000E0FE06C040E205C04DE203C04BE201C08C
:100A000040E0A3FF36C0442311F084E001C083E03E
:100A1000811710F4181B01C010E0E4FC0BC0912FEB
:100A2000F60180E202C0819391509923E1F7C10E53
:100A3000D11C10E0442319F0F60141936F01E2FE4E
:100A400005C08EE4F601808391E404C08EE6F601D1
:100A5000808391E69183828383E090E0C80ED91E63
:100A6000812FF60190E202C0919381508823E1F733
:100A70003AC0A2FF3FC0442311F084E001C083E0EC
:100A8000811710F4181B01C010E0E4FC0BC0912F7B
:100A9000F60180E202C0819391509923E1F7C10EE3
:100AA000D11C10E0442319F0F60141936F01E2FEDE
:100AB00007C089E4F60180838EE4818386E406C062
:100AC00089E6F60180838EE6818386E6828383E071
:100AD00090E0C80ED91E812FF60190E202C09193DA
:100AE00081508823E1F7C10ED11CF60110828EEFF0
:100AF0009FEFAFC021E030E0442311F420E030E06C
:100B0000161617061CF4CB01019602C081E090E096
:100B1000280F391FFF2021F08F2D90E0019602C091
:100B200080E090E0820F931F212F30E0821793071F
:100B30001CF4512F581B01C050E08E2D90E09C01F9
:100B400020713070E4FC0DC0E3FC0BC0852FF60172
:100B500090E202C0919381508823E1F7C50ED11C29
:100B600050E0442319F0F60141936F01211531053E
:100B700059F4852FF60190E302C0919381508823A8
:100B8000E1F7C50ED11C50E0B60E4A8120E1622E7D
:100B9000712C6A227B22A4FF03C0413309F4BA946A
:100BA0001B142CF48B2D893018F088E001C081E0F3
:100BB0009B0177FF02C020E030E0A0E0B0E09EE2C1
:100BC000E92E4B01881A9108CB01821B930B8E01F1
:100BD0000F5F1F4F080F191F8F2D90E0AA24BB2411
:100BE000A81AB90AFFEF2F3F3F0719F4F601E19267
:100BF0006F016217730744F0821693062CF4F80114
:100C0000EA0FFB1F818101C080E321503040119623
:100C10002A153B0524F0F60181936F01E3CF2617D7
:100C2000370741F4463328F4453321F46114710445
:100C300009F481E3F6018193852FDF0190E202C080
:100C40009D9381508823E1F7E50FF11D108280E02C
:100C500090E02996EEE00C942507283008F027E074
:100C60003327DA01990F311D87FD916000966105E8
:100C7000710539F432602E5F3D9330E32A95E1F738
:100C800008959F3F30F080387105610509F03C5FA1
:100C90003C5F3D93913008F08068911DDF93CF93C6
:100CA0001F930F93FF92EF92192F987F9695E92F3C
:100CB00096959695E90FFF27E85FFE4F9927332712
:100CC000EE24FF24A701E70105900894079428F477
:100CD000360FE71EF81E491F511D660F771F881F2C
:100CE000991F0694A1F70590079428F4E70EF81EC3
:100CF000491F561FC11D770F881F991F661F069435
:100D0000A1F70590079428F4F80E491F561FC71F36
:100D1000D11D880F991F661F771F0694A1F70590B4
:100D2000079420F4490F561FC71FD81F990F661F3D
:100D3000771F881F0694A9F784911095177041F0CA
:100D4000D695C79557954795F794E7941A95C1F7A7
:100D5000EEEAF0E0689415901591359165919591C2
:100D600005907FE27395E118F10A430B560BC90B0E
:100D7000D009C0F7E10CF11E431F561FC91FD01D3B
:100D80007EF4703311F48A95E6CFE894015030F088
:100D9000080F0AF40027021708F4202F2395022FCA
:100DA0007A3328F079E37D932A95E9F710C07D9393
:100DB0002A9589F606949795679537951795179410
:100DC000E118F10A430B560BC90BD00998F0239593
:100DD0007E9173957A3308F070E37C932013B8F713
:100DE0007E9170617D9330F0839571E37D9370E324
:100DF0002A95E1F71124EF90FF900F911F91CF9169
:100E0000DF91992787FD909508952F923F924F92F9
:100E10005F926F927F928F929F92AF92BF92CF928A
:100E2000DF92EF92FF920F931F93CF93DF93CDB793
:100E3000DEB7CA1BDB0B0FB6F894DEBF0FBECDBF0B
:100E400009942A88398848885F846E847D848C84DC
:100E50009B84AA84B984C884DF80EE80FD800C81E5
:100E60001B81AA81B981CE0FD11D0FB6F894DEBFC8
:0C0E70000FBECDBFED010895F894FFCF38
:080E7C004300416C6572740033
:00000001FF
